:020000040800F2
:1000000000500020350F0008710700087307000832
:10001000750700087707000879070008000000004E
:100020000000000000000000000000007B07000846
:100030007D070008000000007F0700088107000816
:100040007D0F00087D0F00087D0F00087D0F000860
:100050007D0F00087D0F00087D0F00087D0F000850
:100060007D0F00087D0F00087D0F00087D0F000840
:100070007D0F00087D0F00087D0F00087D0F000830
:100080007D0F00087D0F00087D0F00087D0F000820
:100090007D0F00087D0F00087D0F00087D0F000810
:1000A0007D0F00087D0F00087D0F00087D0F000800
:1000B0007D0F00087D0F00087D0F00087D0F0008F0
:1000C0007D0F00087D0F00087D0F00087D0F0008E0
:1000D0007D0F00087D0F00087D0F00087D0F0008D0
:1000E0007D0F00087D0F00087D0F00080000000054
:1000F0000000000000000000000000000000000000
:0C01000000000000000000005FF808F1A3
:10010C0080F0004002E000BF81F0004142001FBFC0
:10011C005FEA410392EA030F7FEA226C7FEA236CC9
:10012C006AD04FEA1262D2EB1363C1BFD2184140BE
:10013C0048404140B8BF5B42192B88BF704710F054
:10014C00004F40F4000020F07F4018BF404211F0F7
:10015C00004F41F4000121F07F4118BF494292EA5F
:10016C00030F3FD0A2F1010241FA03FC10EB0C008B
:10017C00C3F1200301FA03F100F0004302D5494218
:10018C0060EB4000B0F5000F13D3B0F1807F06D3C5
:10019C0040084FEA310102F10102FE2A51D2B1F1BD
:1001AC00004F40EBC25008BF20F0010040EA0300B2
:1001BC007047490040EB0000013A28BFB0F5000F32
:1001CC00EDD2B0FA80FCACF1080CB2EB0C0200FAE8
:1001DC000CF0AABF00EBC25052421843BCBFD04037
:1001EC001843704792F0000F81F4000106BF80F4B1
:1001FC0000000132013BB5E74FEA41037FEA226C74
:10020C0018BF7FEA236C21D092EA030F04D092F03E
:10021C00000F08BF0846704790EA010F1CBF002072
:10022C00704712F07F4F04D1400028BF40F00040CF
:10023C00704712F100723CBF00F50000704700F0EF
:10024C00004343F0FE4040F4000070477FEA226216
:10025C0016BF08467FEA23630146420206BF5FEAE7
:10026C00412390EA010F40F4800070474FF00003E7
:10027C0004E000BF10F0004348BF40425FEA000CAE
:10028C0008BF704743F0964301464FF000001CE056
:10029C0050EA010208BF70474FF000030AE000BFAC
:1002AC0050EA010208BF704711F0004302D54042EA
:1002BC0061EB41015FEA010C02BF8446014600205C
:1002CC0043F0B64308BFA3F18053A3F50003BCFA77
:1002DC008CF2083AA3EBC25310DB01FA02FC634424
:1002EC0000FA02FCC2F12002BCF1004F20FA02F22B
:1002FC0043EB020008BF20F00100704702F120021E
:10030C0001FA02FCC2F1200250EA4C0021FA02F27E
:10031C0043EB020008BF20EADC7070474FF0FF0C83
:10032C001CEAD0521EBF1CEAD15392EA0C0F93EA7E
:10033C000C0F6FD01A4480EA010C400218BF5FEA20
:10034C0041211ED04FF0006343EA501043EA511193
:10035C00A0FB01310CF00040B1F5000F3EBF49008D
:10036C0041EAD3715B0040EA010062F17F02FD2A91
:10037C001DD8B3F1004F40EBC25008BF20F0010074
:10038C00704790F0000F0CF0004C08BF49024CEA8B
:10039C00502040EA51207F3AC2BFD2F1FF0340EA1D
:1003AC00C250704740F400004FF00003013A5DDC8E
:1003BC0012F1190FDCBF00F000407047C2F10002CF
:1003CC00410021FA02F1C2F1200200FA02FC5FEABC
:1003DC00310040F1000053EA4C0308BF20EADC7006
:1003EC00704792F0000F00F0004C02BF400010F478
:1003FC00000F013AF9D040EA0C0093F0000F01F025
:10040C00004C02BF490011F4000F013BF9D041EA46
:10041C000C018FE70CEAD15392EA0C0F18BF93EA48
:10042C000C0F0AD030F0004C18BF31F0004CD8D172
:10043C0080EA010000F00040704790F0000F17BFF9
:10044C0090F0004F084691F0000F91F0004F14D03F
:10045C0092EA0C0F01D142020FD193EA0C0F03D197
:10046C004B0218BF084608D180EA010000F000409A
:10047C0040F0FE4040F40000704740F0FE4040F475
:10048C00400070474FF0FF0C1CEAD0521EBF1CEA14
:10049C00D15392EA0C0F93EA0C0F69D0A2EB030232
:1004AC0080EA010C49024FEA402037D04FF08053CC
:1004BC0043EA111143EA10130CF000408B4238BF91
:1004CC005B0042F17D024FF4000C8B4224BF5B1A9F
:1004DC0040EA0C00B3EB510F24BFA3EB510340EAED
:1004EC005C00B3EB910F24BFA3EB910340EA9C009B
:1004FC00B3EBD10F24BFA3EBD10340EADC001B010B
:10050C0018BF5FEA1C1CE0D1FD2A3FF650AF8B42AE
:10051C0040EBC25008BF20F0010070470CF0004CBB
:10052C004CEA50207F32C2BFD2F1FF0340EAC250E6
:10053C00704740F400004FF00003013A37E792F0A7
:10054C00000F00F0004C02BF400010F4000F013A05
:10055C00F9D040EA0C0093F0000F01F0004C02BF00
:10056C00490011F4000F013BF9D041EA0C0195E769
:10057C000CEAD15392EA0C0F08D142027FF47DAF02
:10058C0093EA0C0F7FF470AF084676E793EA0C0FF2
:10059C0004D14B023FF44CAF08466EE730F0004CF0
:1005AC0018BF31F0004CCAD130F000427FF45CAF80
:1005BC0031F000437FF43CAF5FE700BF0348044BCE
:1005CC00834202D0034B03B1184770470C00002044
:1005DC000C000020000000000548064B1B1AD90F28
:1005EC0001EBA301491002D0034B03B1184770472C
:1005FC000C0000200C0000200000000010B5064C80
:10060C00237843B9FFF7DAFF044B13B10448AFF377
:10061C0000800123237010BD0C000020000000009E
:10062C00D80F000808B5054B1BB105490548AFF3B9
:10063C000080BDE80840FFF7CFBF00BF00000000FE
:10064C0010000020D80F000882B0064B9A6942F0C7
:10065C0004029A619B6903F004030193019B02B0AD
:10066C00704700BF00100240074AD2F8FC3043F03C
:10067C008073C2F8FC30054B00225A601A6842F0B5
:10068C0001021A60704700BF00ED00E0001000E0AE
:10069C0038B50F4B5D680F4B1B68AB4203D90E4A44
:1006AC001368013313600B4B1D600B4B1868FFF77D
:1006BC00E1FD0A49FFF732FE04462846FFF7D6FD56
:1006CC000749FFF7DFFE01462046FFF71FFD38BD47
:1006DC00001000E02C00002030000020BD378643C5
:1006EC000024744B72B6FEE700B591B028220021AD
:1006FC0006A800F063FC0023019302930393049378
:10070C0005930223069301220A9210220B920D9359
:10071C004FF400230F9306A800F0B2F870B90F2322
:10072C00019302230293002103910491059101A8E6
:10073C0000F0D8FA20B911B05DF804FBFFF7D2FF36
:10074C00FFF7D0FF08B5FFF78FFF00F05FF8FFF75A
:10075C00CBFFFFF779FFFFF79BFF014B1860FAE720
:10076C0028000020FEE7FEE7FEE7FEE7FEE7704705
:10077C007047704708B500F05BF808BD82B00E4BAF
:10078C009A6942F001029A619A6902F001020092A0
:10079C00009ADA6942F08052DA61DB6903F0805327
:1007AC000193019B054A536823F0E06343F0007307
:1007BC00536002B0704700BF0010024000000140BF
:1007CC0010B504460E4B1A784FF47A73B3FBF2F360
:1007DC000C4A1068B0FBF3F000F090FB68B90F2CDA
:1007EC0001D901200AE0002221464FF0FF3000F031
:1007FC0075FB054B1C60002000E0012010BD00BF04
:10080C0000000020080000200400002008B5074A62
:10081C00136843F010031360032000F04DFB0F200E
:10082C00FFF7CEFFFFF7AAFF002008BD0020024013
:10083C00034A1168034B1B780B441360704700BFCD
:10084C003400002000000020014B1868704700BFE6
:10085C003400002082B0084B1B68084AA2FB03231B
:10086C005B0A00FB03F3019300BF019B5A1E01922C
:10087C00002BF9D102B0704708000020D34D621054
:10088C00002800F0F18170B582B00446036813F0C3
:10089C00010F2CD0994B5B6803F00C03042B1DD07B
:1008AC00964B5B6803F00C03082B12D06368B3F50E
:1008BC00803F41D0002B55D103F1804303F5043325
:1008CC001A6822F480321A601A6822F480221A60A4
:1008DC0037E08A4B5B6813F4803FE7D0874B1B688B
:1008EC0013F4003F03D06368002B00F0BF81236832
:1008FC0013F0020F75D0814B5B6813F00C0F5FD0B7
:10090C007E4B5B6803F00C03082B54D02369002B3F
:10091C0000F08A807A4B01221A60FFF795FF05469A
:10092C00764B1B6813F0020F75D1FFF78DFF401B40
:10093C000228F5D903209EE1704A136843F48033F2
:10094C001360636843B3FFF77FFF05466B4B1B686F
:10095C0013F4003FCBD1FFF777FF401B6428F5D988
:10096C00032088E1B3F5A02F09D0644B1A6822F458
:10097C0080321A601A6822F480221A60E1E703F1CF
:10098C008043A3F53C331A6842F480221A601A683B
:10099C0042F480321A60D4E7FFF756FF0546574BF6
:1009AC001B6813F4003FA2D0FFF74EFF401B6428D6
:1009BC00F5D903205FE1514B5B6813F4803FA5D15F
:1009CC004E4B1B6813F0020F03D02369012B40F030
:1009DC004F814A4A136823F0F803616943EAC10363
:1009EC001360236813F0080F33D0A369002B5CD07D
:1009FC00434B0122C3F88024FFF726FF05463F4BEB
:100A0C005B6A13F0020F21D1FFF71EFF401B022877
:100A1C00F5D903202FE1394A136823F0F8036169F3
:100A2C0043EAC1031360DCE7354B00221A60FFF781
:100A3C000BFF0546314B1B6813F0020FD1D0FFF7AB
:100A4C0003FF401B0228F5D9032014E10120FFF716
:100A5C0001FF236813F0040F00F09680274BDB692D
:100A6C0013F0805F34D1254BDA6942F08052DA61A1
:100A7C00DB6903F080530193019B0125214B1B681B
:100A8C0013F4807F26D0E368012B3DD0002B53D18B
:100A9C0003F1804303F504331A6A22F001021A624F
:100AAC001A6A22F004021A6233E0154B0022C3F8D2
:100ABC008024FFF7C9FE0546104B5B6A13F0020F4A
:100ACC00C7D0FFF7C1FE401B0228F5D90320D2E0A6
:100ADC000025D3E70B4A136843F480731360FFF7C8
:100AEC00B3FE0646074B1B6813F4807FCBD1FFF790
:100AFC00ABFE801B6428F5D90320BCE0001002403B
:100B0C0000004242007000405F4A136A43F0010348
:100B1C001362E36833B3FFF797FE06465A4B1B6A22
:100B2C0013F0020F2FD1FFF78FFE801B41F2883399
:100B3C009842F3D903209EE0052B09D0524B1A6A38
:100B4C0022F001021A621A6A22F004021A62E0E729
:100B5C004D4B1A6A42F004021A621A6A42F0010200
:100B6C001A62D6E7FFF770FE0646474B1B6A13F076
:100B7C00020F08D0FFF768FE801B41F288339842C1
:100B8C00F3D9032077E0E5B9E369002B72D03E4A34
:100B9C00526802F00C02082A56D0022B17D03B4B9D
:100BAC0000221A66FFF750FE0446374B1B6813F001
:100BBC00007F47D0FFF748FE001B0228F5D9032021
:100BCC0059E0314AD36923F08053D361DCE72F4BD2
:100BDC0000221A66FFF738FE05462B4B1B6813F0F4
:100BEC00007F06D0FFF730FE401B0228F5D903200A
:100BFC0041E0236AB3F5803F1AD023494B6823F4B4
:100C0C007413226A606A024313434B601F4B012228
:100C1C001A66FFF719FE04461B4B1B6813F0007F86
:100C2C000ED1FFF711FE001B0228F5D9032022E09C
:100C3C00154A536823F40033A1680B435360DCE777
:100C4C00002018E0002016E0012B16D00E4B5B683C
:100C5C0003F48031226A914211D103F47013626A59
:100C6C0093420ED1002006E001207047012002E0E3
:100C7C00012000E0002002B070BD0120FBE7012044
:100C8C00F9E70120F7E700BF0010024000004242E4
:100C9C000F4B5B6803F00C02082A01D00D4870471B
:100CAC00C3F383420C49885C13F4803F0BD0084B90
:100CBC005B68C3F34043094AD35C064A02FB00F06D
:100CCC00B0FBF3F07047064B03FB00F0704700BF1E
:100CDC000010024000127A00F40F0008F00F000818
:100CEC0000093D00002800F0A08070B50D460446B8
:100CFC00524B1B6803F007038B420BD24F4A13680D
:100D0C0023F007030B431360136803F007038B42B4
:100D1C0040F08D80236813F0020F17D013F0040FEE
:100D2C0004D0474A536843F4E0635360236813F0DC
:100D3C00080F04D0424A536843F460535360404A4E
:100D4C00536823F0F003A1680B435360236813F03E
:100D5C00010F31D06368012B20D0022B25D0384AEB
:100D6C00126812F0020F64D035494A6822F003026F
:100D7C0013434B60FFF768FD0646314B5B6803F08D
:100D8C000C036268B3EB820F16D0FFF75DFD801B7E
:100D9C0041F288339842F0D9032045E0284A126882
:100DAC0012F4003FE0D101203EE0254A126812F017
:100DBC00007FD9D1012037E0204B1B6803F00703DB
:100DCC00AB420AD91D4A136823F007032B43136067
:100DDC00136803F00703AB422DD1236813F0040F03
:100DEC0006D0174A536823F4E063E1680B43536061
:100DFC00236813F0080F07D0114A536823F460538B
:100E0C00216943EAC1035360FFF742FF0C4B5B6857
:100E1C00C3F303130B4AD35CD8400B4B18600B4B3A
:100E2C001868FFF7CDFC002070BD01207047012031
:100E3C00FAE70120F8E70120F6E700BF00200240A6
:100E4C0000100240041000080800002004000020DC
:100E5C00002808DB0901C9B200F1604000F56140CF
:100E6C0080F80013704700F00F000901C9B2014B64
:100E7C001954704714ED00E000B500F00700C0F104
:100E8C00070CBCF1040F28BF4FF0040C031D062BFC
:100E9C000FD9C31E4FF0FF3E0EFA0CF021EA0001F1
:100EAC0099400EFA03FE22EA0E0241EA02005DF8B6
:100EBC0004FB0023EEE70000074AD36823F4E06349
:100ECC001B041B0C000200F4E060034343F0BF63FF
:100EDC0043F40033D360704700ED00E010B50446D6
:100EEC00054BD868C0F30220FFF7C6FF0146204629
:100EFC00FFF7AEFF10BD00BF00ED00E00138B0F110
:100F0C00807F0BD24FF0E0235861054AF02182F824
:100F1C0023100020986107221A6170470120704746
:100F2C0000ED00E070470000FFF7FCFF0B480C4998
:100F3C000C4A002302E0D458C4500433C4188C4229
:100F4C00F9D3094A094C002301E013600432A24290
:100F5C00FBD300F00FF8FFF7F5FB70470000002003
:100F6C000C0000201C1000080C0000203800002091
:100F7C00FEE7000070B500260C4D0D4C641BA41050
:100F8C00A64209D100F022F800260A4D0A4C641B37
:100F9C00A410A64205D170BD55F8043B9847013604
:100FAC00EEE755F8043B98470136F2E714100008B9
:100FBC00141000081410000818100008034602440E
:100FCC00934200D1704703F8011BF9E7F8B500BF55
:100FDC00F8BC08BC9E467047F8B500BFF8BC08BC0E
:040FEC009E46704766
:100FF0000102000002030405060708090A0B0C0D94
:101000000E0F101000000000000000000102030499
:0410100006070809BE
:041014003106000899
:0410180009060008BD
:0C101C00010000001000000000127A002B
:0400000508000F35AB
:00000001FF
