:020000040800F2
:1000000000500020A5120008E10A0008E30A0008D9
:10001000E50A0008E70A0008E90A000800000000F5
:10002000000000000000000000000000EB0A0008D3
:10003000ED0A000800000000EF0A0008F10A0008BD
:10004000ED120008ED120008ED120008ED12000894
:10005000ED120008ED120008ED120008ED12000884
:10006000ED120008ED120008ED120008ED12000874
:10007000ED120008ED120008ED120008ED12000864
:10008000ED120008ED120008ED120008ED12000854
:10009000ED120008ED120008ED120008ED12000844
:1000A000ED120008ED120008ED120008ED12000834
:1000B000ED120008ED120008ED120008ED12000824
:1000C000ED120008ED120008ED120008ED12000814
:1000D000ED120008ED120008ED120008ED12000804
:1000E000ED120008ED120008ED12000800000000FB
:1000F0000000000000000000000000000000000000
:0C01000000000000000000005FF808F1A3
:10010C0081F0004102E000BF83F0004330B54FEABC
:10011C0041044FEA430594EA050F08BF90EA020F29
:10012C001FBF54EA000C55EA020C7FEA645C7FEABC
:10013C00655C00F0E2804FEA5454D4EB5555B8BFDF
:10014C006D420CDD2C4480EA020281EA030382EA50
:10015C00000083EA010180EA020281EA0303362DE2
:10016C0088BF30BD11F0004F4FEA01314FF4801CB5
:10017C004CEA113102D0404261EB410113F0004FC7
:10018C004FEA03334CEA133302D0524263EB43037E
:10019C0094EA050F00F0A780A4F10104D5F1200E1C
:1001AC000DDB02FA0EFC22FA05F2801841F1000177
:1001BC0003FA0EF2801843FA05F359410EE0A5F14B
:1001CC0020050EF1200E012A03FA0EFC28BF4CF07C
:1001DC00020C43FA05F3C01851EBE37101F0004532
:1001EC0007D54FF0000EDCF1000C7EEB00006EEB3F
:1001FC000101B1F5801F1BD3B1F5001F0CD34908C9
:10020C005FEA30004FEA3C0C04F101044FEA44521F
:10021C0012F5800F80F09A80BCF1004F08BF5FEAA6
:10022C00500C50F1000041EB045141EA050130BD86
:10023C005FEA4C0C404141EB0101013C28BFB1F598
:10024C00801FE9D291F0000F04BF01460020B1FAE3
:10025C0081F308BF2033A3F10B03B3F120020CDAB6
:10026C000C3208DD02F1140CC2F10C0201FA0CF094
:10027C0021FA02F10CE002F11402D8BFC2F1200CF9
:10028C0001FA02F120FA0CFCDCBF41EA0C019040AF
:10029C00E41AA2BF01EB0451294330BD6FEA0404F8
:1002AC001F3C1CDA0C340EDC04F11404C4F12002E3
:1002BC0020FA04F001FA02F340EA030021FA04F3F5
:1002CC0045EA030130BDC4F10C04C4F1200220FA4C
:1002DC0002F001FA04F340EA0300294630BD21FA8A
:1002EC0004F0294630BD94F0000F83F4801306BF50
:1002FC0081F480110134013D4EE77FEA645C18BF44
:10030C007FEA655C29D094EA050F08BF90EA020FDA
:10031C0005D054EA000C04BF1946104630BD91EAD2
:10032C00030F1EBF0021002030BD5FEA545C05D1D5
:10033C004000494128BF41F0004130BD14F5800414
:10034C003CBF01F5801130BD01F0004545F0FE4188
:10035C0041F470014FF0000030BD7FEA645C1ABFBD
:10036C00194610467FEA655C1CBF0B46024650EAF4
:10037C00013406BF52EA033591EA030F41F4002120
:10038C0030BD00BF90F0000F04BF0021704730B5A6
:10039C004FF4806404F132044FF000054FF000017B
:1003AC0050E700BF90F0000F04BF0021704730B53C
:1003BC004FF4806404F1320410F0004548BF404211
:1003CC004FF000013EE700BF42004FEAE2014FEA66
:1003DC0031014FEA02701FBF12F07F4393F07F4F41
:1003EC0081F06051704732F07F4208BF704793F044
:1003FC007F4F04BF41F40021704730B54FF4607457
:10040C0001F0004521F000411CE700BF50EA010259
:10041C0008BF704730B54FF000050AE050EA010202
:10042C0008BF704730B511F0004502D5404261EB72
:10043C0041014FF4806404F132045FEA915C3FF4B3
:10044C00D8AE4FF003025FEADC0C18BF03325FEA50
:10045C00DC0C18BF033202EBDC02C2F1200300FA01
:10046C0003FC20FA02F001FA03FE40EA0E0021FA26
:10047C0002F11444BDE600BF70B54FF0FF0C4CF414
:10048C00E06C1CEA11541DBF1CEA135594EA0C0FC6
:10049C0095EA0C0F00F0DEF82C4481EA030621EA01
:1004AC004C5123EA4C5350EA013518BF52EA03353C
:1004BC0041F4801143F4801338D0A0FB02CE4FF0EE
:1004CC000005E1FB02E506F00042E0FB03E54FF01E
:1004DC000006E1FB03569CF0000F18BF4EF0010E16
:1004EC00A4F1FF04B6F5007F64F5407404D25FEA12
:1004FC004E0E6D4146EB060642EAC62141EA5551C5
:10050C004FEAC52040EA5E504FEACE2EB4F1FD0C06
:10051C0088BFBCF5E06F1ED8BEF1004F08BF5FEA84
:10052C00500E50F1000041EB045170BD06F0004636
:10053C0046EA010140EA020081EA0301B4EB5C04E3
:10054C00C2BFD4EB0C0541EA045170BD41F48011DB
:10055C004FF0000E013C00F3AB8014F1360FDEBF00
:10056C00002001F0004170BDC4F10004203C35DADC
:10057C000C341BDC04F11404C4F1200500FA05F35F
:10058C0020FA04F001FA05F240EA020001F0004200
:10059C0021F0004110EBD37021FA04F642EB060176
:1005AC005EEA430E08BF20EAD37070BDC4F10C04A0
:1005BC00C4F1200500FA04F320FA05F001FA04F264
:1005CC0040EA020001F0004110EBD37041F1000150
:1005DC005EEA430E08BF20EAD37070BDC4F120055B
:1005EC0000FA05F24EEA020E20FA04F301FA05F2C3
:1005FC0043EA020321FA04F001F0004121FA04F26B
:10060C0020EA020000EBD3705EEA430E08BF20EA3A
:10061C00D37070BD94F0000F0FD101F00046400074
:10062C0041EB010111F4801F08BF013CF7D041EAF6
:10063C00060195F0000F18BF704703F000465200FA
:10064C0043EB030313F4801F08BF013DF7D043EACB
:10065C000603704794EA0C0F0CEA135518BF95EA81
:10066C000C0F0CD050EA410618BF52EA4306D1D108
:10067C0081EA030101F000414FF0000070BD50EA27
:10068C00410606BF1046194652EA430619D094EAB1
:10069C000C0F02D150EA013613D195EA0C0F05D19B
:1006AC0052EA03361CBF104619460AD181EA0301EF
:1006BC0001F0004141F0FE4141F470014FF00000A7
:1006CC0070BD41F0FE4141F4780170BD70B54FF042
:1006DC00FF0C4CF4E06C1CEA11541DBF1CEA1355C2
:1006EC0094EA0C0F95EA0C0F00F0A7F8A4EB0504A4
:1006FC0081EA030E52EA03354FEA013100F088809B
:10070C004FEA03334FF0805545EA131343EA126363
:10071C004FEA022245EA111545EA10654FEA002618
:10072C000EF000419D4208BF964244F1FD0404F5D1
:10073C00407402D25B084FEA3202B61A65EB03052D
:10074C005B084FEA32024FF480104FF4002CB6EBEA
:10075C00020E75EB030E22BFB61A754640EA0C006A
:10076C005B084FEA3202B6EB020E75EB030E22BFAA
:10077C00B61A754640EA5C005B084FEA3202B6EBEB
:10078C00020E75EB030E22BFB61A754640EA9C00AA
:10079C005B084FEA3202B6EB020E75EB030E22BF7A
:1007AC00B61A754640EADC0055EA060E18D04FEA38
:1007BC00051545EA16754FEA06164FEAC30343EAD8
:1007CC0052734FEAC2025FEA1C1CC0D111F4801FA5
:1007DC000BD141EA00014FF000004FF0004CB6E79E
:1007EC0011F4801F04BF01430020B4F1FD0C88BF3D
:1007FC00BCF5E06F3FF6AFAEB5EB030C04BFB6EB48
:10080C00020C5FEA500C50F1000041EB045170BD3A
:10081C000EF0004E4EEA113114EB5C04C2BFD4EB67
:10082C000C0541EA045170BD41F480114FF0000EEB
:10083C00013C90E645EA060E8DE60CEA135594EA67
:10084C000C0F08BF95EA0C0F3FF43BAF94EA0C0F6A
:10085C000AD150EA01347FF434AF95EA0C0F7FF4DF
:10086C0025AF104619462CE795EA0C0F06D152EA33
:10087C0003353FF4FDAE1046194622E750EA410617
:10088C0018BF52EA43067FF4C5AE50EA41047FF428
:10089C000DAF52EA43057FF4EBAE12E74FEA41028B
:1008AC00B2F1E04324BFB3F5001CDCF1FE5C0DD9C2
:1008BC0001F0004C4FEAC0024CEA5070B2F1004F0C
:1008CC0040EB830008BF20F00100704711F0804F0F
:1008DC0021D113F13872BCBF01F00040704741F4D4
:1008EC0080114FEA5252C2F11802C2F1200C10FAD8
:1008FC000CF320FA02F018BF40F001004FEAC123BC
:10090C004FEAD32303FA0CFC40EA0C0023FA02F35F
:10091C004FEA4303CCE77FEA625307D150EA013335
:10092C001EBF4FF0FE4040F44000704701F0004005
:10093C0040F0FE4040F40000704700BF0348044BF9
:10094C00834202D0034B03B1184770470C000020C0
:10095C000C000020000000000548064B1B1AD90FA4
:10096C0001EBA301491002D0034B03B118477047A8
:10097C000C0000200C0000200000000010B5064CFC
:10098C00237843B9FFF7DAFF044B13B10448AFF3F4
:10099C0000800123237010BD0C000020000000001B
:1009AC004813000808B5054B1BB105490548AFF3C2
:1009BC000080BDE80840FFF7CFBF00BF000000007B
:1009CC00100000204813000882B0064B9A6942F0D0
:1009DC0004029A619B6903F004030193019B02B02A
:1009EC00704700BF00100240074AD2F8FC3043F0B9
:1009FC008073C2F8FC30054B00225A601A6842F032
:100A0C0001021A60704700BF00ED00E0001000E02A
:100A1C0038B50C4B5A680C4B1868101A0B490C68FB
:100A2C00204408601A60FFF7ADFC04460D4600F048
:100A3C00E7FAFFF7A7FC02460B4620462946FFF7CC
:100A4C0045FE38BD001000E02C00002028000020DE
:100A5C0072B6FEE700B591B02822002106A800F07E
:100A6C0065FC0023019302930393049305930223E3
:100A7C00069301220A9210220B920D934FF400233D
:100A8C000F9306A800F0B4F870B90F23019302235A
:100A9C000293002103910491059101A800F0DAFA68
:100AAC0020B911B05DF804FBFFF7D2FFFFF7D0FFC0
:100ABC0008B5FFF799FF00F061F8FFF7CBFFFFF7E0
:100ACC0083FFFFF7A5FFFFF7E9FE014B1860F8E77E
:100ADC0030000020FEE7FEE7FEE7FEE7FEE770478A
:100AEC007047704708B500F05BF808BD82B00E4B3C
:100AFC009A6942F001029A619A6902F0010200922D
:100B0C00009ADA6942F08052DA61DB6903F08053B3
:100B1C000193019B054A536823F0E06343F0007393
:100B2C00536002B0704700BF00100240000001404B
:100B3C0010B504460E4B1A784FF47A73B3FBF2F3EC
:100B4C000C4A1068B0FBF3F000F090FB68B90F2C66
:100B5C0001D901200AE0002221464FF0FF3000F0BD
:100B6C0075FB054B1C60002000E0012010BD00BF90
:100B7C0000000020080000200400002008B5074AEF
:100B8C00136843F010031360032000F04DFB0F209B
:100B9C00FFF7CEFFFFF7AAFF002008BD00200240A0
:100BAC00034A1168034B1B780B441360704700BF5A
:100BBC003400002000000020014B1868704700BF73
:100BCC003400002082B0084B1B68084AA2FB0323A8
:100BDC005B0A00FB03F3019300BF019B5A1E0192B9
:100BEC00002BF9D102B0704708000020D34D6210E1
:100BFC00002800F0F18170B582B00446036813F050
:100C0C00010F2CD0994B5B6803F00C03042B1DD007
:100C1C00964B5B6803F00C03082B12D06368B3F59A
:100C2C00803F41D0002B55D103F1804303F50433B1
:100C3C001A6822F480321A601A6822F480221A6030
:100C4C0037E08A4B5B6813F4803FE7D0874B1B6817
:100C5C0013F4003F03D06368002B00F0BF812368BE
:100C6C0013F0020F75D0814B5B6813F00C0F5FD043
:100C7C007E4B5B6803F00C03082B54D02369002BCC
:100C8C0000F08A807A4B01221A60FFF795FF054627
:100C9C00764B1B6813F0020F75D1FFF78DFF401BCD
:100CAC000228F5D903209EE1704A136843F480337F
:100CBC001360636843B3FFF77FFF05466B4B1B68FC
:100CCC0013F4003FCBD1FFF777FF401B6428F5D915
:100CDC00032088E1B3F5A02F09D0644B1A6822F4E5
:100CEC0080321A601A6822F480221A60E1E703F15C
:100CFC008043A3F53C331A6842F480221A601A68C8
:100D0C0042F480321A60D4E7FFF756FF0546574B82
:100D1C001B6813F4003FA2D0FFF74EFF401B642862
:100D2C00F5D903205FE1514B5B6813F4803FA5D1EB
:100D3C004E4B1B6813F0020F03D02369012B40F0BC
:100D4C004F814A4A136823F0F803616943EAC103EF
:100D5C001360236813F0080F33D0A369002B5CD009
:100D6C00434B0122C3F88024FFF726FF05463F4B77
:100D7C005B6A13F0020F21D1FFF71EFF401B022804
:100D8C00F5D903202FE1394A136823F0F803616980
:100D9C0043EAC1031360DCE7354B00221A60FFF70E
:100DAC000BFF0546314B1B6813F0020FD1D0FFF738
:100DBC0003FF401B0228F5D9032014E10120FFF7A3
:100DCC0001FF236813F0040F00F09680274BDB69BA
:100DDC0013F0805F34D1254BDA6942F08052DA612E
:100DEC00DB6903F080530193019B0125214B1B68A8
:100DFC0013F4807F26D0E368012B3DD0002B53D118
:100E0C0003F1804303F504331A6A22F001021A62DB
:100E1C001A6A22F004021A6233E0154B0022C3F85E
:100E2C008024FFF7C9FE0546104B5B6A13F0020FD6
:100E3C00C7D0FFF7C1FE401B0228F5D90320D2E032
:100E4C000025D3E70B4A136843F480731360FFF754
:100E5C00B3FE0646074B1B6813F4807FCBD1FFF71C
:100E6C00ABFE801B6428F5D90320BCE000100240C7
:100E7C0000004242007000405F4A136A43F00103D5
:100E8C001362E36833B3FFF797FE06465A4B1B6AAF
:100E9C0013F0020F2FD1FFF78FFE801B41F2883326
:100EAC009842F3D903209EE0052B09D0524B1A6AC5
:100EBC0022F001021A621A6A22F004021A62E0E7B6
:100ECC004D4B1A6A42F004021A621A6A42F001028D
:100EDC001A62D6E7FFF770FE0646474B1B6A13F003
:100EEC00020F08D0FFF768FE801B41F2883398424E
:100EFC00F3D9032077E0E5B9E369002B72D03E4AC1
:100F0C00526802F00C02082A56D0022B17D03B4B29
:100F1C0000221A66FFF750FE0446374B1B6813F08D
:100F2C00007F47D0FFF748FE001B0228F5D90320AD
:100F3C0059E0314AD36923F08053D361DCE72F4B5E
:100F4C0000221A66FFF738FE05462B4B1B6813F080
:100F5C00007F06D0FFF730FE401B0228F5D9032096
:100F6C0041E0236AB3F5803F1AD023494B6823F440
:100F7C007413226A606A024313434B601F4B0122B5
:100F8C001A66FFF719FE04461B4B1B6813F0007F13
:100F9C000ED1FFF711FE001B0228F5D9032022E029
:100FAC00154A536823F40033A1680B435360DCE704
:100FBC00002018E0002016E0012B16D00E4B5B68C9
:100FCC0003F48031226A914211D103F47013626AE6
:100FDC0093420ED1002006E001207047012002E070
:100FEC00012000E0002002B070BD0120FBE70120D1
:100FFC00F9E70120F7E700BF001002400000424271
:10100C000F4B5B6803F00C02082A01D00D487047A7
:10101C00C3F383420C49885C13F4803F0BD0084B1C
:10102C005B68C3F34043094AD35C064A02FB00F0F9
:10103C00B0FBF3F07047064B03FB00F0704700BFAA
:10104C000010024000127A006413000860130008BC
:10105C0000093D00002800F0A08070B50D46044644
:10106C00524B1B6803F007038B420BD24F4A136899
:10107C0023F007030B431360136803F007038B4241
:10108C0040F08D80236813F0020F17D013F0040F7B
:10109C0004D0474A536843F4E0635360236813F069
:1010AC00080F04D0424A536843F460535360404ADB
:1010BC00536823F0F003A1680B435360236813F0CB
:1010CC00010F31D06368012B20D0022B25D0384A78
:1010DC00126812F0020F64D035494A6822F00302FC
:1010EC0013434B60FFF768FD0646314B5B6803F01A
:1010FC000C036268B3EB820F16D0FFF75DFD801B0B
:10110C0041F288339842F0D9032045E0284A12680E
:10111C0012F4003FE0D101203EE0254A126812F0A3
:10112C00007FD9D1012037E0204B1B6803F0070367
:10113C00AB420AD91D4A136823F007032B431360F3
:10114C00136803F00703AB422DD1236813F0040F8F
:10115C0006D0174A536823F4E063E1680B435360ED
:10116C00236813F0080F07D0114A536823F4605317
:10117C00216943EAC1035360FFF742FF0C4B5B68E4
:10118C00C3F303130B4AD35CD8400B4B18600B4BC7
:10119C001868FFF7CDFC002070BD012070470120BE
:1011AC00FAE70120F8E70120F6E700BF0020024033
:1011BC0000100240741300080800002004000020F6
:1011CC00002808DB0901C9B200F1604000F561405C
:1011DC0080F80013704700F00F000901C9B2014BF1
:1011EC001954704714ED00E000B500F00700C0F191
:1011FC00070CBCF1040F28BF4FF0040C031D062B89
:10120C000FD9C31E4FF0FF3E0EFA0CF021EA00017D
:10121C0099400EFA03FE22EA0E0241EA02005DF842
:10122C0004FB0023EEE70000074AD36823F4E063D5
:10123C001B041B0C000200F4E060034343F0BF638B
:10124C0043F40033D360704700ED00E010B5044662
:10125C00054BD868C0F30220FFF7C6FF01462046B5
:10126C00FFF7AEFF10BD00BF00ED00E00138B0F19C
:10127C00807F0BD24FF0E0235861054AF02182F8B1
:10128C0023100020986107221A61704701207047D3
:10129C0000ED00E070470000FFF7FCFF0B480C4925
:1012AC000C4A002302E0D458C4500433C4188C42B6
:1012BC00F9D3094A094C002301E013600432A2421D
:1012CC00FBD300F00FF8FFF7F3FB70470000002092
:1012DC000C0000208C1300080C00002038000020AB
:1012EC00FEE7000070B500260C4D0D4C641BA410DD
:1012FC00A64209D100F022F800260A4D0A4C641BC4
:10130C00A410A64205D170BD55F8043B9847013690
:10131C00EEE755F8043B98470136F2E784130008D2
:10132C008413000884130008881300080346024441
:10133C00934200D1704703F8011BF9E7F8B500BFE1
:10134C00F8BC08BC9E467047F8B500BFF8BC08BC9A
:04135C009E467047F2
:101360000102000002030405060708090A0B0C0D20
:101370000E0F101000000000000000000102030426
:04138000060708094B
:04138400B1090008A3
:0413880089090008C7
:0C138C00010000001000000000127A00B8
:04000005080012A538
:00000001FF
